:1000000000010020530100004D0100004F010000DD
:1000100051010000510100005101000000000000EA
:10002000000000000000000000000000510100007E
:1000300051010000000000005101000051010000CA
:100040005101000051010000510100005101000068
:100050005101000051010000510100005101000058
:100060005101000051010000510100005101000048
:100070005101000051010000510100005101000038
:100080005101000051010000510100005101000028
:100090005101000051010000510100005101000018
:1000A0005101000051010000510100005101000008
:1000B00051010000510100005101000051010000F8
:1000C00051010000510100005101000051010000E8
:1000D00051010000510100005101000051010000D8
:1000E00051010000510100005101000051010000C8
:1000F0002022124B82B01A601B68114A019301231F
:100100001360C2F81C310F4B1A6842F001021A60EA
:100110000022019201990C4A914202D8019A0132BF
:10012000F7E71A6822F001021A6000230193019A8E
:10013000054B9A42E7D8019B0133F7E708E10F40EE
:1001400000540240FC5302403F0D0300FEE7FEE76F
:10015000FEE70A4A0A4B0B498B4204D252F8041FAD
:1001600043F8041BF7E7084808494FF000028842AB
:10017000B8BF40F8042BFADBFFF7BABF8C010000D0
:1001800000000020000000200000002000010020EE
:00000001FF
